{
  "_format": "hh-sol-artifact-1",
  "contractName": "GraphBasedEmailSystem",
  "sourceName": "contracts/GraphBasedEmailSystem.sol",
  "abi": [
    {
      "anonymous": false,
      "inputs": [
        {
          "indexed": true,
          "internalType": "address",
          "name": "_fromAddress",
          "type": "address"
        },
        {
          "indexed": true,
          "internalType": "address",
          "name": "_toAddress",
          "type": "address"
        },
        {
          "indexed": false,
          "internalType": "string",
          "name": "_ipfsHash",
          "type": "string"
        },
        {
          "indexed": false,
          "internalType": "uint256",
          "name": "time",
          "type": "uint256"
        }
      ],
      "name": "NewMessage",
      "type": "event"
    },
    {
      "anonymous": false,
      "inputs": [
        {
          "indexed": true,
          "internalType": "address",
          "name": "_toAddress",
          "type": "address"
        },
        {
          "indexed": false,
          "internalType": "string",
          "name": "_publicKey",
          "type": "string"
        },
        {
          "indexed": false,
          "internalType": "uint256",
          "name": "time",
          "type": "uint256"
        }
      ],
      "name": "newRegistration",
      "type": "event"
    },
    {
      "inputs": [
        {
          "internalType": "address",
          "name": "_receiver",
          "type": "address"
        }
      ],
      "name": "GetReceiverPublicKey",
      "outputs": [
        {
          "internalType": "string",
          "name": "",
          "type": "string"
        }
      ],
      "stateMutability": "view",
      "type": "function"
    },
    {
      "inputs": [],
      "name": "GetSenderPublicKey",
      "outputs": [
        {
          "internalType": "string",
          "name": "",
          "type": "string"
        }
      ],
      "stateMutability": "view",
      "type": "function"
    },
    {
      "inputs": [
        {
          "internalType": "string",
          "name": "_publicKey",
          "type": "string"
        }
      ],
      "name": "Register",
      "outputs": [],
      "stateMutability": "nonpayable",
      "type": "function"
    },
    {
      "inputs": [
        {
          "internalType": "address",
          "name": "_toAddress",
          "type": "address"
        },
        {
          "internalType": "string",
          "name": "_ipfsHash",
          "type": "string"
        }
      ],
      "name": "SendMessage",
      "outputs": [],
      "stateMutability": "nonpayable",
      "type": "function"
    }
  ],
  "bytecode": "0x608060405234801561001057600080fd5b506108a0806100206000396000f3fe608060405234801561001057600080fd5b506004361061004c5760003560e01c806340b2d3af146100515780636b1afbfb1461006d578063d088db401461008b578063ebe8f09f146100a7575b600080fd5b61006b6004803603810190610066919061057d565b6100d7565b005b610075610180565b6040516100829190610665565b60405180910390f35b6100a560048036038101906100a09190610525565b610251565b005b6100c160048036038101906100bc91906104fc565b6102bf565b6040516100ce9190610665565b60405180910390f35b806000803373ffffffffffffffffffffffffffffffffffffffff1673ffffffffffffffffffffffffffffffffffffffff168152602001908152602001600020600001908051906020019061012c929190610392565b503373ffffffffffffffffffffffffffffffffffffffff167f90833f95b531a060cda4abbf1e74ba57f16e6e62afe528ab66cc9169d998995f8242604051610175929190610687565b60405180910390a250565b60606000803373ffffffffffffffffffffffffffffffffffffffff1673ffffffffffffffffffffffffffffffffffffffff16815260200190815260200160002060000180546101ce906107b2565b80601f01602080910402602001604051908101604052809291908181526020018280546101fa906107b2565b80156102475780601f1061021c57610100808354040283529160200191610247565b820191906000526020600020905b81548152906001019060200180831161022a57829003601f168201915b5050505050905090565b8273ffffffffffffffffffffffffffffffffffffffff163373ffffffffffffffffffffffffffffffffffffffff167f820e6d37b56b06482f38c0c5918db7d094c4b90fb974528a28d83440790640998484426040516102b293929190610633565b60405180910390a3505050565b60606000808373ffffffffffffffffffffffffffffffffffffffff1673ffffffffffffffffffffffffffffffffffffffff168152602001908152602001600020600001805461030d906107b2565b80601f0160208091040260200160405190810160405280929190818152602001828054610339906107b2565b80156103865780601f1061035b57610100808354040283529160200191610386565b820191906000526020600020905b81548152906001019060200180831161036957829003601f168201915b50505050509050919050565b82805461039e906107b2565b90600052602060002090601f0160209004810192826103c05760008555610407565b82601f106103d957805160ff1916838001178555610407565b82800160010185558215610407579182015b828111156104065782518255916020019190600101906103eb565b5b5090506104149190610418565b5090565b5b80821115610431576000816000905550600101610419565b5090565b6000610448610443846106e8565b6106b7565b90508281526020810184848401111561046057600080fd5b61046b848285610770565b509392505050565b60008135905061048281610853565b92915050565b60008083601f84011261049a57600080fd5b8235905067ffffffffffffffff8111156104b357600080fd5b6020830191508360018202830111156104cb57600080fd5b9250929050565b600082601f8301126104e357600080fd5b81356104f3848260208601610435565b91505092915050565b60006020828403121561050e57600080fd5b600061051c84828501610473565b91505092915050565b60008060006040848603121561053a57600080fd5b600061054886828701610473565b935050602084013567ffffffffffffffff81111561056557600080fd5b61057186828701610488565b92509250509250925092565b60006020828403121561058f57600080fd5b600082013567ffffffffffffffff8111156105a957600080fd5b6105b5848285016104d2565b91505092915050565b60006105ca8385610723565b93506105d7838584610770565b6105e083610842565b840190509392505050565b60006105f682610718565b6106008185610723565b935061061081856020860161077f565b61061981610842565b840191505092915050565b61062d81610766565b82525050565b6000604082019050818103600083015261064e8185876105be565b905061065d6020830184610624565b949350505050565b6000602082019050818103600083015261067f81846105eb565b905092915050565b600060408201905081810360008301526106a181856105eb565b90506106b06020830184610624565b9392505050565b6000604051905081810181811067ffffffffffffffff821117156106de576106dd610813565b5b8060405250919050565b600067ffffffffffffffff82111561070357610702610813565b5b601f19601f8301169050602081019050919050565b600081519050919050565b600082825260208201905092915050565b600061073f82610746565b9050919050565b600073ffffffffffffffffffffffffffffffffffffffff82169050919050565b6000819050919050565b82818337600083830152505050565b60005b8381101561079d578082015181840152602081019050610782565b838111156107ac576000848401525b50505050565b600060028204905060018216806107ca57607f821691505b602082108114156107de576107dd6107e4565b5b50919050565b7f4e487b7100000000000000000000000000000000000000000000000000000000600052602260045260246000fd5b7f4e487b7100000000000000000000000000000000000000000000000000000000600052604160045260246000fd5b6000601f19601f8301169050919050565b61085c81610734565b811461086757600080fd5b5056fea26469706673582212208611194135f2de9fcdc1d17c2e8e00e191d0bffdc51dd34253f339341f20d82564736f6c63430008000033",
  "linkReferences": {},
  "deployedLinkReferences": {}
}